:040000000CEF08F009
:10100000004F686D5F4D657465722E43202020206F
:101010002020202000000000926A0F0E936E946E34
:10102000956A966A0F0EC16ED0EC09F0000E0B6A3D
:10103000B3EC09F0086A096A0850010F0A6E0AC089
:10104000F6FF100EF76E000EF86E0800F5502BEC50
:101050000AF0084A092A140E085C000E0958ECE34D
:10106000F40E0D6E010E0E6E17EC0AF0010EEAEC96
:1010700009F092680F0E966E850EC06E070EC16E57
:10108000010EC26EF36AF46A000E02EC0AF00BC0A5
:1010900006F00CC007F006C004F007C005F006C05B
:1010A00002F007C003F006C000F007C001F0000E18
:1010B0000B6AB3EC09F0106A050E0F6E06C00BF058
:1010C00007C00CF0000E0CBEFF0E0D6E0E6EA8ECED
:1010D00008F0080E0B6E000EB3EC09F0106A050E56
:1010E0000F6E04C00BF005C00CF0000E0CBEFF0E1E
:1010F0000D6E0E6EA8EC08F00B6A010EB3EC09F051
:10110000106A050E0F6E02C00BF003C00CF0000E4B
:101110000CBEFF0E0D6E0E6EA8EC08F0080E0B6EE6
:10112000010EB3EC09F0106A050E0F6E00C00BF053
:1011300001C00CF0000E0CBEFF0E0D6E0E6EA8EC82
:1011400008F0640E0D6E000E0E6A17EC0AF09CD7C4
:101150000EAE0CD02D0E2BEC0AF00E1E0D1E0C1E2A
:101160000B6C000E0C220D220E2203D0200E2BEC55
:101170000AF0D96A0A0E206E000E216A226A236ADA
:101180000BC01CF00CC01DF00DC01EF00EC01FF0F7
:1011900069EC09F0110ED924E96EEA6A000EEA2220
:1011A0001CC0EFFF0A0E206E000E216A226A236A1D
:1011B0000BC01CF00CC01DF00DC01EF00EC01FF0C7
:1011C0000BEC09F01CC00BF01DC00CF01EC00DF0A4
:1011D0001FC00EF0D92A090ED964CCD70FC0F4FF76
:1011E000F46601D0090C1050F46203D02E0E2BECE3
:1011F0000AF0F4CF1BF0FF0E1B26110E1B24E96E24
:10120000EA6A000EEA22EF50300F2BEC0AF0F406E7
:10121000F466E9D71200F36A23AE0AD0231E221E19
:10122000211E206C000E212222222322010EF36EA9
:101230001FAE0AD01F1E1E1E1D1E1C6C000E1D227E
:101240001E221F22010EF31A246A256A266A276AC3
:10125000235020102110221029E0010EE96ED890B1
:1012600023BE07D02036213622362336E92AF7D787
:10127000D890243625362636273620501C5C21503F
:101280001D5822501E5823501F5809E320501C5E41
:1012900021501D5A22501E5A23501F5A2480D89084
:1012A0002332223221322032E92EE2D7F35008E0F5
:1012B000271E261E251E246C000E252226222722EC
:1012C00024C01CF025C01DF026C01EF027C01FF052
:1012D0001200F36A1FAE0AD01F1E1E1E1D1E1C6CBC
:1012E000000E1D221E221F22010EF36E23AE08D017
:1012F000231E221E211E206C000E212222222322C8
:10130000235020102110221023E0010EE96E23BE8D
:1013100007D0D8902036213622362336E92AF7D74F
:1013200020501C5C21501D5822501E5823501F581D
:1013300008E320501C5E21501D5A22501E5A235093
:101340001F5AD8902332223221322032E92EE8D798
:10135000F35008E01F1E1E1E1D1E1C6C000E1D22D9
:101360001E221F221200E8CFD9FFD96604D00B50ED
:10137000800FEAEC09F0D90404E10B50C00FEAEC4D
:1013800009F0D950020A04E10B50940FEAEC09F07D
:10139000D950030AD8A412000B50D40FEAEF09F079
:1013A000010E956E8392330EEAEC09F0320EEAECF0
:1013B00009F0280EEAEC09F00E0EEAEC09F0010E35
:1013C000EAEC09F0060EEAEC09F0640E0D6E0E6A06
:1013D00017EF0AF0E8CFF3FF8394F3CF0CF0F00E91
:1013E0003EEC0AF04AEC0AF0F3CF0CF00C3AF00EA7
:1013F0000C163EEC0AF04AEC0AF00A0E0D6E0E6A6C
:1014000017EF0AF0E8CFE9FF0F0EE916E950040DD7
:10141000F328C26ED96AD92A130ED964FCD7C282C6
:10142000C2B2FED7C3CF0BF0C4CF0CF01200F36AE8
:10143000F46A0D50F35C0E50F458D8B012000F6AE5
:10144000106A0F4A102A690E0F5C020E1058F9E359
:10145000F34AF42AEED7E8CFF3FF8384F3CF1CF0EE
:10146000F00E44EC0AF04AEC0AF0F3CF1CF01C3A00
:10147000F00E1C1644EC0AF04AEF0AF00C168350EA
:101480000F0B0C10836E12001C1683500F0B1C10D8
:10149000836E1200839653EC0AF0838653EC0AF0B5
:1014A000839653EF0AF0E96AE92A130EE964FCD740
:0214B000130C1B
:00000001FF
